{
  "contractName": "Patient",
  "abi": [
    {
      "anonymous": false,
      "inputs": [
        {
          "indexed": true,
          "internalType": "address",
          "name": "adminAddress",
          "type": "address"
        }
      ],
      "name": "AdminAdded",
      "type": "event"
    },
    {
      "anonymous": false,
      "inputs": [
        {
          "indexed": true,
          "internalType": "address",
          "name": "adminAddress",
          "type": "address"
        }
      ],
      "name": "AdminRemoved",
      "type": "event"
    },
    {
      "anonymous": false,
      "inputs": [
        {
          "indexed": true,
          "internalType": "address",
          "name": "oldOwner",
          "type": "address"
        },
        {
          "indexed": true,
          "internalType": "address",
          "name": "newOwner",
          "type": "address"
        }
      ],
      "name": "TransferOwnerShip",
      "type": "event"
    },
    {
      "inputs": [
        {
          "internalType": "address",
          "name": "_adminAddress",
          "type": "address"
        }
      ],
      "name": "addAdmin",
      "outputs": [],
      "stateMutability": "nonpayable",
      "type": "function"
    },
    {
      "inputs": [
        {
          "internalType": "string",
          "name": "_hospitalName",
          "type": "string"
        },
        {
          "internalType": "string",
          "name": "_hospitalLocation",
          "type": "string"
        },
        {
          "internalType": "address",
          "name": "_hospitalAddress",
          "type": "address"
        }
      ],
      "name": "addHospital",
      "outputs": [],
      "stateMutability": "nonpayable",
      "type": "function"
    },
    {
      "inputs": [
        {
          "internalType": "address",
          "name": "_address",
          "type": "address"
        }
      ],
      "name": "getHospital",
      "outputs": [
        {
          "internalType": "uint256",
          "name": "id",
          "type": "uint256"
        },
        {
          "internalType": "string",
          "name": "hospitalName",
          "type": "string"
        },
        {
          "internalType": "string",
          "name": "hospitalLocation",
          "type": "string"
        },
        {
          "internalType": "address",
          "name": "hospitalAddress",
          "type": "address"
        },
        {
          "internalType": "bool",
          "name": "isApproved",
          "type": "bool"
        }
      ],
      "stateMutability": "view",
      "type": "function",
      "constant": true
    },
    {
      "inputs": [],
      "name": "getHospitalCount",
      "outputs": [
        {
          "internalType": "uint256",
          "name": "",
          "type": "uint256"
        }
      ],
      "stateMutability": "view",
      "type": "function",
      "constant": true
    },
    {
      "inputs": [
        {
          "internalType": "uint256",
          "name": "",
          "type": "uint256"
        }
      ],
      "name": "hospitalList",
      "outputs": [
        {
          "internalType": "address",
          "name": "",
          "type": "address"
        }
      ],
      "stateMutability": "view",
      "type": "function",
      "constant": true
    },
    {
      "inputs": [
        {
          "internalType": "address",
          "name": "",
          "type": "address"
        }
      ],
      "name": "isAdmin",
      "outputs": [
        {
          "internalType": "bool",
          "name": "",
          "type": "bool"
        }
      ],
      "stateMutability": "view",
      "type": "function",
      "constant": true
    },
    {
      "inputs": [],
      "name": "owner",
      "outputs": [
        {
          "internalType": "address",
          "name": "",
          "type": "address"
        }
      ],
      "stateMutability": "view",
      "type": "function",
      "constant": true
    },
    {
      "inputs": [
        {
          "internalType": "uint256",
          "name": "",
          "type": "uint256"
        }
      ],
      "name": "patientList",
      "outputs": [
        {
          "internalType": "address",
          "name": "",
          "type": "address"
        }
      ],
      "stateMutability": "view",
      "type": "function",
      "constant": true
    },
    {
      "inputs": [
        {
          "internalType": "address",
          "name": "_adminAddress",
          "type": "address"
        }
      ],
      "name": "removeAdmin",
      "outputs": [],
      "stateMutability": "nonpayable",
      "type": "function"
    },
    {
      "inputs": [
        {
          "internalType": "address",
          "name": "_owner",
          "type": "address"
        }
      ],
      "name": "setOwner",
      "outputs": [],
      "stateMutability": "nonpayable",
      "type": "function"
    },
    {
      "inputs": [
        {
          "internalType": "address",
          "name": "_patientAddress",
          "type": "address"
        },
        {
          "internalType": "string",
          "name": "_hospitalName",
          "type": "string"
        },
        {
          "internalType": "string",
          "name": "_reason",
          "type": "string"
        },
        {
          "internalType": "string",
          "name": "_admittedOn",
          "type": "string"
        },
        {
          "internalType": "string",
          "name": "_dischargedOn",
          "type": "string"
        },
        {
          "internalType": "string",
          "name": "_ipfs",
          "type": "string"
        }
      ],
      "name": "addRecord",
      "outputs": [],
      "stateMutability": "nonpayable",
      "type": "function"
    },
    {
      "inputs": [
        {
          "internalType": "string",
          "name": "_name",
          "type": "string"
        },
        {
          "internalType": "string",
          "name": "_phone",
          "type": "string"
        },
        {
          "internalType": "string",
          "name": "_gender",
          "type": "string"
        },
        {
          "internalType": "string",
          "name": "_dob",
          "type": "string"
        },
        {
          "internalType": "string",
          "name": "_bloodGroup",
          "type": "string"
        },
        {
          "internalType": "string",
          "name": "_allergies",
          "type": "string"
        }
      ],
      "name": "addPatient",
      "outputs": [],
      "stateMutability": "nonpayable",
      "type": "function"
    },
    {
      "inputs": [
        {
          "internalType": "address",
          "name": "_patientAddress",
          "type": "address"
        }
      ],
      "name": "getPatientDetails",
      "outputs": [
        {
          "internalType": "string",
          "name": "_name",
          "type": "string"
        },
        {
          "internalType": "string",
          "name": "_phone",
          "type": "string"
        },
        {
          "internalType": "string",
          "name": "_gender",
          "type": "string"
        },
        {
          "internalType": "string",
          "name": "_dob",
          "type": "string"
        },
        {
          "internalType": "string",
          "name": "_bloodGroup",
          "type": "string"
        },
        {
          "internalType": "string",
          "name": "_allergies",
          "type": "string"
        }
      ],
      "stateMutability": "view",
      "type": "function",
      "constant": true
    },
    {
      "inputs": [
        {
          "internalType": "address",
          "name": "_patientAddress",
          "type": "address"
        }
      ],
      "name": "getPatientRecords",
      "outputs": [
        {
          "internalType": "string[]",
          "name": "_hospitalName",
          "type": "string[]"
        },
        {
          "internalType": "string[]",
          "name": "_reason",
          "type": "string[]"
        },
        {
          "internalType": "string[]",
          "name": "_admittedOn",
          "type": "string[]"
        },
        {
          "internalType": "string[]",
          "name": "_dischargedOn",
          "type": "string[]"
        },
        {
          "internalType": "string[]",
          "name": "_ipfs",
          "type": "string[]"
        }
      ],
      "stateMutability": "view",
      "type": "function",
      "constant": true
    },
    {
      "inputs": [
        {
          "internalType": "address",
          "name": "_addr",
          "type": "address"
        }
      ],
      "name": "addAuth",
      "outputs": [],
      "stateMutability": "nonpayable",
      "type": "function"
    },
    {
      "inputs": [
        {
          "internalType": "address",
          "name": "_addr",
          "type": "address"
        }
      ],
      "name": "revokeAuth",
      "outputs": [],
      "stateMutability": "nonpayable",
      "type": "function"
    },
    {
      "inputs": [
        {
          "internalType": "address",
          "name": "_from",
          "type": "address"
        },
        {
          "internalType": "address",
          "name": "_to",
          "type": "address"
        }
      ],
      "name": "addAuthFromTo",
      "outputs": [],
      "stateMutability": "nonpayable",
      "type": "function"
    },
    {
      "inputs": [
        {
          "internalType": "address",
          "name": "_from",
          "type": "address"
        },
        {
          "internalType": "address",
          "name": "_to",
          "type": "address"
        }
      ],
      "name": "removeAuthFromTo",
      "outputs": [],
      "stateMutability": "nonpayable",
      "type": "function"
    },
    {
      "inputs": [],
      "name": "getPatientCount",
      "outputs": [
        {
          "internalType": "uint256",
          "name": "",
          "type": "uint256"
        }
      ],
      "stateMutability": "view",
      "type": "function",
      "constant": true
    }
  ],
  "bytecode": "0x608060405234801561001057600080fd5b50336000806101000a81548173ffffffffffffffffffffffffffffffffffffffff021916908373ffffffffffffffffffffffffffffffffffffffff16021790555060018060003373ffffffffffffffffffffffffffffffffffffffff1673ffffffffffffffffffffffffffffffffffffffff16815260200190815260200160002060006101000a81548160ff02191690831515021790555061430d806100b76000396000f3fe608060405234801561001057600080fd5b50600436106101215760003560e01c8063a4f3cc23116100ad578063e0d23e1111610071578063e0d23e111461031e578063ef264a211461033a578063efe2ccc114610356578063f8171dfa1461038b578063fe45a81d146103a757610121565b8063a4f3cc2314610250578063babb1d411461026c578063c190665b1461029c578063c49b09b5146102ba578063c82412b9146102ee57610121565b806324d7806c116100f457806324d7806c146101ae57806351d9ab38146101de5780635422224e146101fa57806370480275146102165780638da5cb5b1461023257610121565b80630c3c45a01461012657806313af4035146101425780631785f53c1461015e57806318bd48471461017a575b600080fd5b610140600480360381019061013b9190613534565b6103c5565b005b61015c6004803603810190610157919061350b565b6106b6565b005b6101786004803603810190610173919061350b565b61084d565b005b610194600480360381019061018f919061350b565b6109f2565b6040516101a5959493929190613dcd565b60405180910390f35b6101c860048036038101906101c3919061350b565b61144b565b6040516101d59190613e43565b60405180910390f35b6101f860048036038101906101f39190613671565b61146b565b005b610214600480360381019061020f919061350b565b611789565b005b610230600480360381019061022b919061350b565b611924565b005b61023a611ad9565b6040516102479190613db2565b60405180910390f35b61026a600480360381019061026591906136f0565b611afd565b005b61028660048036038101906102819190613809565b611fc8565b6040516102939190613db2565b60405180910390f35b6102a4612007565b6040516102b191906140c9565b60405180910390f35b6102d460048036038101906102cf919061350b565b612011565b6040516102e59594939291906140e4565b60405180910390f35b61030860048036038101906103039190613809565b6122ac565b6040516103159190613db2565b60405180910390f35b61033860048036038101906103339190613534565b6122eb565b005b610354600480360381019061034f9190613570565b612612565b005b610370600480360381019061036b919061350b565b612894565b60405161038296959493929190613e5e565b60405180910390f35b6103a560048036038101906103a0919061350b565b61322a565b005b6103af6133c4565b6040516103bc91906140c9565b60405180910390f35b600860008373ffffffffffffffffffffffffffffffffffffffff1673ffffffffffffffffffffffffffffffffffffffff16815260200190815260200160002060008273ffffffffffffffffffffffffffffffffffffffff1673ffffffffffffffffffffffffffffffffffffffff16815260200190815260200160002060009054906101000a900460ff161561048f576040517f08c379a000000000000000000000000000000000000000000000000000000000815260040161048690614069565b60405180910390fd5b8073ffffffffffffffffffffffffffffffffffffffff168273ffffffffffffffffffffffffffffffffffffffff1614156104fe576040517f08c379a00000000000000000000000000000000000000000000000000000000081526004016104f590613fa9565b60405180910390fd5b600860008373ffffffffffffffffffffffffffffffffffffffff1673ffffffffffffffffffffffffffffffffffffffff16815260200190815260200160002060003373ffffffffffffffffffffffffffffffffffffffff1673ffffffffffffffffffffffffffffffffffffffff16815260200190815260200160002060009054906101000a900460ff166105c7576040517f08c379a00000000000000000000000000000000000000000000000000000000081526004016105be90614009565b60405180910390fd5b600a60008373ffffffffffffffffffffffffffffffffffffffff1673ffffffffffffffffffffffffffffffffffffffff16815260200190815260200160002060009054906101000a900460ff1661061d57600080fd5b6001600860008473ffffffffffffffffffffffffffffffffffffffff1673ffffffffffffffffffffffffffffffffffffffff16815260200190815260200160002060008373ffffffffffffffffffffffffffffffffffffffff1673ffffffffffffffffffffffffffffffffffffffff16815260200190815260200160002060006101000a81548160ff0219169083151502179055505050565b60008054906101000a900473ffffffffffffffffffffffffffffffffffffffff1673ffffffffffffffffffffffffffffffffffffffff163373ffffffffffffffffffffffffffffffffffffffff161461070e57600080fd5b8073ffffffffffffffffffffffffffffffffffffffff163373ffffffffffffffffffffffffffffffffffffffff1614156107b0576040517f08c379a00000000000000000000000000000000000000000000000000000000081526004018080602001828103825260198152602001807f416c726561647920796f752061726520746865206f776e65720000000000000081525060200191505060405180910390fd5b806000806101000a81548173ffffffffffffffffffffffffffffffffffffffff021916908373ffffffffffffffffffffffffffffffffffffffff1602179055508073ffffffffffffffffffffffffffffffffffffffff163373ffffffffffffffffffffffffffffffffffffffff167fc5bf6dda410d3f9123b5de1a2f5d486bd65c29adfc2e21c0ac98fd6f826fd4a260405160405180910390a350565b60008054906101000a900473ffffffffffffffffffffffffffffffffffffffff1673ffffffffffffffffffffffffffffffffffffffff163373ffffffffffffffffffffffffffffffffffffffff16146108a557600080fd5b60008054906101000a900473ffffffffffffffffffffffffffffffffffffffff1673ffffffffffffffffffffffffffffffffffffffff168173ffffffffffffffffffffffffffffffffffffffff1614156108fe57600080fd5b600160008273ffffffffffffffffffffffffffffffffffffffff1673ffffffffffffffffffffffffffffffffffffffff16815260200190815260200160002060009054906101000a900460ff1661095457600080fd5b6000600160008373ffffffffffffffffffffffffffffffffffffffff1673ffffffffffffffffffffffffffffffffffffffff16815260200190815260200160002060006101000a81548160ff0219169083151502179055508073ffffffffffffffffffffffffffffffffffffffff167fa3b62bc36326052d97ea62d63c3d60308ed4c3ea8ac079dd8499f1e9c4f80c0f60405160405180910390a250565b6060806060806060600860008773ffffffffffffffffffffffffffffffffffffffff1673ffffffffffffffffffffffffffffffffffffffff16815260200190815260200160002060003373ffffffffffffffffffffffffffffffffffffffff1673ffffffffffffffffffffffffffffffffffffffff16815260200190815260200160002060009054906101000a900460ff16610ac3576040517f08c379a0000000000000000000000000000000000000000000000000000000008152600401610aba90613f09565b60405180910390fd5b600a60008773ffffffffffffffffffffffffffffffffffffffff1673ffffffffffffffffffffffffffffffffffffffff16815260200190815260200160002060009054906101000a900460ff16610b1957600080fd5b6000600960008873ffffffffffffffffffffffffffffffffffffffff1673ffffffffffffffffffffffffffffffffffffffff1681526020019081526020016000206007018054905011610ba1576040517f08c379a0000000000000000000000000000000000000000000000000000000008152600401610b9890614049565b60405180910390fd5b6000600960008873ffffffffffffffffffffffffffffffffffffffff1673ffffffffffffffffffffffffffffffffffffffff1681526020019081526020016000206007018054905067ffffffffffffffff81118015610bff57600080fd5b50604051908082528060200260200182016040528015610c3357816020015b6060815260200190600190039081610c1e5790505b5090506000600960008973ffffffffffffffffffffffffffffffffffffffff1673ffffffffffffffffffffffffffffffffffffffff1681526020019081526020016000206007018054905067ffffffffffffffff81118015610c9457600080fd5b50604051908082528060200260200182016040528015610cc857816020015b6060815260200190600190039081610cb35790505b5090506000600960008a73ffffffffffffffffffffffffffffffffffffffff1673ffffffffffffffffffffffffffffffffffffffff1681526020019081526020016000206007018054905067ffffffffffffffff81118015610d2957600080fd5b50604051908082528060200260200182016040528015610d5d57816020015b6060815260200190600190039081610d485790505b5090506000600960008b73ffffffffffffffffffffffffffffffffffffffff1673ffffffffffffffffffffffffffffffffffffffff1681526020019081526020016000206007018054905067ffffffffffffffff81118015610dbe57600080fd5b50604051908082528060200260200182016040528015610df257816020015b6060815260200190600190039081610ddd5790505b5090506000600960008c73ffffffffffffffffffffffffffffffffffffffff1673ffffffffffffffffffffffffffffffffffffffff1681526020019081526020016000206007018054905067ffffffffffffffff81118015610e5357600080fd5b50604051908082528060200260200182016040528015610e8757816020015b6060815260200190600190039081610e725790505b50905060005b600960008d73ffffffffffffffffffffffffffffffffffffffff1673ffffffffffffffffffffffffffffffffffffffff1681526020019081526020016000206007018054905081101561142d57600960008d73ffffffffffffffffffffffffffffffffffffffff1673ffffffffffffffffffffffffffffffffffffffff1681526020019081526020016000206007018181548110610f2757fe5b90600052602060002090600502016000018054600181600116156101000203166002900480601f016020809104026020016040519081016040528092919081815260200182805460018160011615610100020316600290048015610fcc5780601f10610fa157610100808354040283529160200191610fcc565b820191906000526020600020905b815481529060010190602001808311610faf57829003601f168201915b5050505050868281518110610fdd57fe5b6020026020010181905250600960008d73ffffffffffffffffffffffffffffffffffffffff1673ffffffffffffffffffffffffffffffffffffffff168152602001908152602001600020600701818154811061103557fe5b90600052602060002090600502016001018054600181600116156101000203166002900480601f0160208091040260200160405190810160405280929190818152602001828054600181600116156101000203166002900480156110da5780601f106110af576101008083540402835291602001916110da565b820191906000526020600020905b8154815290600101906020018083116110bd57829003601f168201915b50505050508582815181106110eb57fe5b6020026020010181905250600960008d73ffffffffffffffffffffffffffffffffffffffff1673ffffffffffffffffffffffffffffffffffffffff168152602001908152602001600020600701818154811061114357fe5b90600052602060002090600502016002018054600181600116156101000203166002900480601f0160208091040260200160405190810160405280929190818152602001828054600181600116156101000203166002900480156111e85780601f106111bd576101008083540402835291602001916111e8565b820191906000526020600020905b8154815290600101906020018083116111cb57829003601f168201915b50505050508482815181106111f957fe5b6020026020010181905250600960008d73ffffffffffffffffffffffffffffffffffffffff1673ffffffffffffffffffffffffffffffffffffffff168152602001908152602001600020600701818154811061125157fe5b90600052602060002090600502016003018054600181600116156101000203166002900480601f0160208091040260200160405190810160405280929190818152602001828054600181600116156101000203166002900480156112f65780601f106112cb576101008083540402835291602001916112f6565b820191906000526020600020905b8154815290600101906020018083116112d957829003601f168201915b505050505083828151811061130757fe5b6020026020010181905250600960008d73ffffffffffffffffffffffffffffffffffffffff1673ffffffffffffffffffffffffffffffffffffffff168152602001908152602001600020600701818154811061135f57fe5b90600052602060002090600502016004018054600181600116156101000203166002900480601f0160208091040260200160405190810160405280929190818152602001828054600181600116156101000203166002900480156114045780601f106113d957610100808354040283529160200191611404565b820191906000526020600020905b8154815290600101906020018083116113e757829003601f168201915b505050505082828151811061141557fe5b60200260200101819052508080600101915050610e8d565b50848484848499509950995099509950505050505091939590929450565b60016020528060005260406000206000915054906101000a900460ff1681565b60011515600160003373ffffffffffffffffffffffffffffffffffffffff1673ffffffffffffffffffffffffffffffffffffffff16815260200190815260200160002060009054906101000a900460ff161515146114c857600080fd5b600360008273ffffffffffffffffffffffffffffffffffffffff1673ffffffffffffffffffffffffffffffffffffffff16815260200190815260200160002060009054906101000a900460ff1615611588576040517f08c379a000000000000000000000000000000000000000000000000000000000815260040180806020018281038252600d8152602001807f416c72656164792041646465640000000000000000000000000000000000000081525060200191505060405180910390fd5b6005819080600181540180825580915050600190039060005260206000200160009091909190916101000a81548173ffffffffffffffffffffffffffffffffffffffff021916908373ffffffffffffffffffffffffffffffffffffffff1602179055506002600081548092919060010191905055506001600360008373ffffffffffffffffffffffffffffffffffffffff1673ffffffffffffffffffffffffffffffffffffffff16815260200190815260200160002060006101000a81548160ff0219169083151502179055506040518060a0016040528060025481526020018481526020018381526020018273ffffffffffffffffffffffffffffffffffffffff16815260200160011515815250600460008373ffffffffffffffffffffffffffffffffffffffff1673ffffffffffffffffffffffffffffffffffffffff1681526020019081526020016000206000820151816000015560208201518160010190805190602001906116fc9291906133ce565b5060408201518160020190805190602001906117199291906133ce565b5060608201518160030160006101000a81548173ffffffffffffffffffffffffffffffffffffffff021916908373ffffffffffffffffffffffffffffffffffffffff16021790555060808201518160030160146101000a81548160ff021916908315150217905550905050505050565b600860003373ffffffffffffffffffffffffffffffffffffffff1673ffffffffffffffffffffffffffffffffffffffff16815260200190815260200160002060008273ffffffffffffffffffffffffffffffffffffffff1673ffffffffffffffffffffffffffffffffffffffff16815260200190815260200160002060009054906101000a900460ff1615611853576040517f08c379a000000000000000000000000000000000000000000000000000000000815260040161184a90613f89565b60405180910390fd5b8073ffffffffffffffffffffffffffffffffffffffff163373ffffffffffffffffffffffffffffffffffffffff16141561188c57600080fd5b6001600860003373ffffffffffffffffffffffffffffffffffffffff1673ffffffffffffffffffffffffffffffffffffffff16815260200190815260200160002060008373ffffffffffffffffffffffffffffffffffffffff1673ffffffffffffffffffffffffffffffffffffffff16815260200190815260200160002060006101000a81548160ff02191690831515021790555050565b60008054906101000a900473ffffffffffffffffffffffffffffffffffffffff1673ffffffffffffffffffffffffffffffffffffffff163373ffffffffffffffffffffffffffffffffffffffff161461197c57600080fd5b600160008273ffffffffffffffffffffffffffffffffffffffff1673ffffffffffffffffffffffffffffffffffffffff16815260200190815260200160002060009054906101000a900460ff1615611a3c576040517f08c379a00000000000000000000000000000000000000000000000000000000081526004018080602001828103825260168152602001807f5573657220697320616c72656164792041646d696e210000000000000000000081525060200191505060405180910390fd5b60018060008373ffffffffffffffffffffffffffffffffffffffff1673ffffffffffffffffffffffffffffffffffffffff16815260200190815260200160002060006101000a81548160ff0219169083151502179055508073ffffffffffffffffffffffffffffffffffffffff167f44d6d25963f097ad14f29f06854a01f575648a1ef82f30e562ccd3889717e33960405160405180910390a250565b60008054906101000a900473ffffffffffffffffffffffffffffffffffffffff1681565b600a60003373ffffffffffffffffffffffffffffffffffffffff1673ffffffffffffffffffffffffffffffffffffffff16815260200190815260200160002060009054906101000a900460ff1615611b8a576040517f08c379a0000000000000000000000000000000000000000000000000000000008152600401611b8190614029565b60405180910390fd5b6007339080600181540180825580915050600190039060005260206000200160009091909190916101000a81548173ffffffffffffffffffffffffffffffffffffffff021916908373ffffffffffffffffffffffffffffffffffffffff1602179055506006600081548092919060010191905055506001600a60003373ffffffffffffffffffffffffffffffffffffffff1673ffffffffffffffffffffffffffffffffffffffff16815260200190815260200160002060006101000a81548160ff0219169083151502179055506001600860003373ffffffffffffffffffffffffffffffffffffffff1673ffffffffffffffffffffffffffffffffffffffff16815260200190815260200160002060003373ffffffffffffffffffffffffffffffffffffffff1673ffffffffffffffffffffffffffffffffffffffff16815260200190815260200160002060006101000a81548160ff021916908315150217905550600654600960003373ffffffffffffffffffffffffffffffffffffffff1673ffffffffffffffffffffffffffffffffffffffff1681526020019081526020016000206000018190555085600960003373ffffffffffffffffffffffffffffffffffffffff1673ffffffffffffffffffffffffffffffffffffffff1681526020019081526020016000206001019080519060200190611d8b9291906133ce565b5084600960003373ffffffffffffffffffffffffffffffffffffffff1673ffffffffffffffffffffffffffffffffffffffff1681526020019081526020016000206002019080519060200190611de29291906133ce565b5083600960003373ffffffffffffffffffffffffffffffffffffffff1673ffffffffffffffffffffffffffffffffffffffff1681526020019081526020016000206003019080519060200190611e399291906133ce565b5082600960003373ffffffffffffffffffffffffffffffffffffffff1673ffffffffffffffffffffffffffffffffffffffff1681526020019081526020016000206004019080519060200190611e909291906133ce565b5081600960003373ffffffffffffffffffffffffffffffffffffffff1673ffffffffffffffffffffffffffffffffffffffff1681526020019081526020016000206005019080519060200190611ee79291906133ce565b5080600960003373ffffffffffffffffffffffffffffffffffffffff1673ffffffffffffffffffffffffffffffffffffffff1681526020019081526020016000206006019080519060200190611f3e9291906133ce565b5033600960003373ffffffffffffffffffffffffffffffffffffffff1673ffffffffffffffffffffffffffffffffffffffff16815260200190815260200160002060080160006101000a81548173ffffffffffffffffffffffffffffffffffffffff021916908373ffffffffffffffffffffffffffffffffffffffff160217905550505050505050565b60078181548110611fd857600080fd5b906000526020600020016000915054906101000a900473ffffffffffffffffffffffffffffffffffffffff1681565b6000600654905090565b6000606080600080600460008773ffffffffffffffffffffffffffffffffffffffff1673ffffffffffffffffffffffffffffffffffffffff16815260200190815260200160002060030160149054906101000a900460ff1661207257600080fd5b6000600460008873ffffffffffffffffffffffffffffffffffffffff1673ffffffffffffffffffffffffffffffffffffffff1681526020019081526020016000206040518060a001604052908160008201548152602001600182018054600181600116156101000203166002900480601f0160208091040260200160405190810160405280929190818152602001828054600181600116156101000203166002900480156121615780601f1061213657610100808354040283529160200191612161565b820191906000526020600020905b81548152906001019060200180831161214457829003601f168201915b50505050508152602001600282018054600181600116156101000203166002900480601f0160208091040260200160405190810160405280929190818152602001828054600181600116156101000203166002900480156122035780601f106121d857610100808354040283529160200191612203565b820191906000526020600020905b8154815290600101906020018083116121e657829003601f168201915b505050505081526020016003820160009054906101000a900473ffffffffffffffffffffffffffffffffffffffff1673ffffffffffffffffffffffffffffffffffffffff1673ffffffffffffffffffffffffffffffffffffffff1681526020016003820160149054906101000a900460ff161515151581525050905080600001518160200151826040015183606001518460800151955095509550955095505091939590929450565b600581815481106122bc57600080fd5b906000526020600020016000915054906101000a900473ffffffffffffffffffffffffffffffffffffffff1681565b600860008373ffffffffffffffffffffffffffffffffffffffff1673ffffffffffffffffffffffffffffffffffffffff16815260200190815260200160002060008273ffffffffffffffffffffffffffffffffffffffff1673ffffffffffffffffffffffffffffffffffffffff16815260200190815260200160002060009054906101000a900460ff16156123b5576040517f08c379a00000000000000000000000000000000000000000000000000000000081526004016123ac90613f89565b60405180910390fd5b8073ffffffffffffffffffffffffffffffffffffffff168273ffffffffffffffffffffffffffffffffffffffff161415612424576040517f08c379a000000000000000000000000000000000000000000000000000000000815260040161241b90613f69565b60405180910390fd5b600860008373ffffffffffffffffffffffffffffffffffffffff1673ffffffffffffffffffffffffffffffffffffffff16815260200190815260200160002060003373ffffffffffffffffffffffffffffffffffffffff1673ffffffffffffffffffffffffffffffffffffffff16815260200190815260200160002060009054906101000a900460ff166124ed576040517f08c379a00000000000000000000000000000000000000000000000000000000081526004016124e490613f49565b60405180910390fd5b600a60008373ffffffffffffffffffffffffffffffffffffffff1673ffffffffffffffffffffffffffffffffffffffff16815260200190815260200160002060009054906101000a900460ff16612579576040517f08c379a000000000000000000000000000000000000000000000000000000000815260040161257090613f29565b60405180910390fd5b6001600860008473ffffffffffffffffffffffffffffffffffffffff1673ffffffffffffffffffffffffffffffffffffffff16815260200190815260200160002060008373ffffffffffffffffffffffffffffffffffffffff1673ffffffffffffffffffffffffffffffffffffffff16815260200190815260200160002060006101000a81548160ff0219169083151502179055505050565b600a60008773ffffffffffffffffffffffffffffffffffffffff1673ffffffffffffffffffffffffffffffffffffffff16815260200190815260200160002060009054906101000a900460ff1661269e576040517f08c379a000000000000000000000000000000000000000000000000000000000815260040161269590613fe9565b60405180910390fd5b600860008773ffffffffffffffffffffffffffffffffffffffff1673ffffffffffffffffffffffffffffffffffffffff16815260200190815260200160002060003373ffffffffffffffffffffffffffffffffffffffff1673ffffffffffffffffffffffffffffffffffffffff16815260200190815260200160002060009054906101000a900460ff16612767576040517f08c379a000000000000000000000000000000000000000000000000000000000815260040161275e90613ee9565b60405180910390fd5b600960008773ffffffffffffffffffffffffffffffffffffffff1673ffffffffffffffffffffffffffffffffffffffff1681526020019081526020016000206007016040518060a0016040528087815260200186815260200185815260200184815260200183815250908060018154018082558091505060019003906000526020600020906005020160009091909190915060008201518160000190805190602001906128159291906133ce565b5060208201518160010190805190602001906128329291906133ce565b50604082015181600201908051906020019061284f9291906133ce565b50606082015181600301908051906020019061286c9291906133ce565b5060808201518160040190805190602001906128899291906133ce565b505050505050505050565b606080606080606080600860008873ffffffffffffffffffffffffffffffffffffffff1673ffffffffffffffffffffffffffffffffffffffff16815260200190815260200160002060003373ffffffffffffffffffffffffffffffffffffffff1673ffffffffffffffffffffffffffffffffffffffff16815260200190815260200160002060009054906101000a900460ff16612966576040517f08c379a000000000000000000000000000000000000000000000000000000000815260040161295d906140a9565b60405180910390fd5b600a60008873ffffffffffffffffffffffffffffffffffffffff1673ffffffffffffffffffffffffffffffffffffffff16815260200190815260200160002060009054906101000a900460ff166129f2576040517f08c379a00000000000000000000000000000000000000000000000000000000081526004016129e990613fc9565b60405180910390fd5b6000600960008973ffffffffffffffffffffffffffffffffffffffff1673ffffffffffffffffffffffffffffffffffffffff1681526020019081526020016000206040518061012001604052908160008201548152602001600182018054600181600116156101000203166002900480601f016020809104026020016040519081016040528092919081815260200182805460018160011615610100020316600290048015612ae25780601f10612ab757610100808354040283529160200191612ae2565b820191906000526020600020905b815481529060010190602001808311612ac557829003601f168201915b50505050508152602001600282018054600181600116156101000203166002900480601f016020809104026020016040519081016040528092919081815260200182805460018160011615610100020316600290048015612b845780601f10612b5957610100808354040283529160200191612b84565b820191906000526020600020905b815481529060010190602001808311612b6757829003601f168201915b50505050508152602001600382018054600181600116156101000203166002900480601f016020809104026020016040519081016040528092919081815260200182805460018160011615610100020316600290048015612c265780601f10612bfb57610100808354040283529160200191612c26565b820191906000526020600020905b815481529060010190602001808311612c0957829003601f168201915b50505050508152602001600482018054600181600116156101000203166002900480601f016020809104026020016040519081016040528092919081815260200182805460018160011615610100020316600290048015612cc85780601f10612c9d57610100808354040283529160200191612cc8565b820191906000526020600020905b815481529060010190602001808311612cab57829003601f168201915b50505050508152602001600582018054600181600116156101000203166002900480601f016020809104026020016040519081016040528092919081815260200182805460018160011615610100020316600290048015612d6a5780601f10612d3f57610100808354040283529160200191612d6a565b820191906000526020600020905b815481529060010190602001808311612d4d57829003601f168201915b50505050508152602001600682018054600181600116156101000203166002900480601f016020809104026020016040519081016040528092919081815260200182805460018160011615610100020316600290048015612e0c5780601f10612de157610100808354040283529160200191612e0c565b820191906000526020600020905b815481529060010190602001808311612def57829003601f168201915b5050505050815260200160078201805480602002602001604051908101604052809291908181526020016000905b8282101561319657838290600052602060002090600502016040518060a0016040529081600082018054600181600116156101000203166002900480601f016020809104026020016040519081016040528092919081815260200182805460018160011615610100020316600290048015612ef65780601f10612ecb57610100808354040283529160200191612ef6565b820191906000526020600020905b815481529060010190602001808311612ed957829003601f168201915b50505050508152602001600182018054600181600116156101000203166002900480601f016020809104026020016040519081016040528092919081815260200182805460018160011615610100020316600290048015612f985780601f10612f6d57610100808354040283529160200191612f98565b820191906000526020600020905b815481529060010190602001808311612f7b57829003601f168201915b50505050508152602001600282018054600181600116156101000203166002900480601f01602080910402602001604051908101604052809291908181526020018280546001816001161561010002031660029004801561303a5780601f1061300f5761010080835404028352916020019161303a565b820191906000526020600020905b81548152906001019060200180831161301d57829003601f168201915b50505050508152602001600382018054600181600116156101000203166002900480601f0160208091040260200160405190810160405280929190818152602001828054600181600116156101000203166002900480156130dc5780601f106130b1576101008083540402835291602001916130dc565b820191906000526020600020905b8154815290600101906020018083116130bf57829003601f168201915b50505050508152602001600482018054600181600116156101000203166002900480601f01602080910402602001604051908101604052809291908181526020018280546001816001161561010002031660029004801561317e5780601f106131535761010080835404028352916020019161317e565b820191906000526020600020905b81548152906001019060200180831161316157829003601f168201915b50505050508152505081526020019060010190612e3a565b5050505081526020016008820160009054906101000a900473ffffffffffffffffffffffffffffffffffffffff1673ffffffffffffffffffffffffffffffffffffffff1673ffffffffffffffffffffffffffffffffffffffff1681525050905080602001518160400151826060015183608001518460a001518560c001519650965096509650965096505091939550919395565b600860003373ffffffffffffffffffffffffffffffffffffffff1673ffffffffffffffffffffffffffffffffffffffff16815260200190815260200160002060008273ffffffffffffffffffffffffffffffffffffffff1673ffffffffffffffffffffffffffffffffffffffff16815260200190815260200160002060009054906101000a900460ff166132f3576040517f08c379a00000000000000000000000000000000000000000000000000000000081526004016132ea90614089565b60405180910390fd5b8073ffffffffffffffffffffffffffffffffffffffff163373ffffffffffffffffffffffffffffffffffffffff16141561332c57600080fd5b6000600860003373ffffffffffffffffffffffffffffffffffffffff1673ffffffffffffffffffffffffffffffffffffffff16815260200190815260200160002060008373ffffffffffffffffffffffffffffffffffffffff1673ffffffffffffffffffffffffffffffffffffffff16815260200190815260200160002060006101000a81548160ff02191690831515021790555050565b6000600254905090565b828054600181600116156101000203166002900490600052602060002090601f016020900481019282613404576000855561344b565b82601f1061341d57805160ff191683800117855561344b565b8280016001018555821561344b579182015b8281111561344a57825182559160200191906001019061342f565b5b509050613458919061345c565b5090565b5b8082111561347557600081600090555060010161345d565b5090565b600061348c61348784614176565b614145565b9050828152602081018484840111156134a457600080fd5b6134af848285614254565b509392505050565b6000813590506134c6816142a9565b92915050565b600082601f8301126134dd57600080fd5b81356134ed848260208601613479565b91505092915050565b600081359050613505816142c0565b92915050565b60006020828403121561351d57600080fd5b600061352b848285016134b7565b91505092915050565b6000806040838503121561354757600080fd5b6000613555858286016134b7565b9250506020613566858286016134b7565b9150509250929050565b60008060008060008060c0878903121561358957600080fd5b600061359789828a016134b7565b965050602087013567ffffffffffffffff8111156135b457600080fd5b6135c089828a016134cc565b955050604087013567ffffffffffffffff8111156135dd57600080fd5b6135e989828a016134cc565b945050606087013567ffffffffffffffff81111561360657600080fd5b61361289828a016134cc565b935050608087013567ffffffffffffffff81111561362f57600080fd5b61363b89828a016134cc565b92505060a087013567ffffffffffffffff81111561365857600080fd5b61366489828a016134cc565b9150509295509295509295565b60008060006060848603121561368657600080fd5b600084013567ffffffffffffffff8111156136a057600080fd5b6136ac868287016134cc565b935050602084013567ffffffffffffffff8111156136c957600080fd5b6136d5868287016134cc565b92505060406136e6868287016134b7565b9150509250925092565b60008060008060008060c0878903121561370957600080fd5b600087013567ffffffffffffffff81111561372357600080fd5b61372f89828a016134cc565b965050602087013567ffffffffffffffff81111561374c57600080fd5b61375889828a016134cc565b955050604087013567ffffffffffffffff81111561377557600080fd5b61378189828a016134cc565b945050606087013567ffffffffffffffff81111561379e57600080fd5b6137aa89828a016134cc565b935050608087013567ffffffffffffffff8111156137c757600080fd5b6137d389828a016134cc565b92505060a087013567ffffffffffffffff8111156137f057600080fd5b6137fc89828a016134cc565b9150509295509295509295565b60006020828403121561381b57600080fd5b6000613829848285016134f6565b91505092915050565b600061383e83836138d9565b905092915050565b61384f8161420c565b82525050565b6000613860826141b6565b61386a81856141d9565b93508360208202850161387c856141a6565b8060005b858110156138b857848403895281516138998582613832565b94506138a4836141cc565b925060208a01995050600181019050613880565b50829750879550505050505092915050565b6138d38161421e565b82525050565b60006138e4826141c1565b6138ee81856141ea565b93506138fe818560208601614263565b61390781614298565b840191505092915050565b600061391d826141c1565b61392781856141fb565b9350613937818560208601614263565b61394081614298565b840191505092915050565b6000613958601c836141fb565b91507f4e6f205065726d697373696f6e20746f20616464207265636f726473000000006000830152602082019050919050565b6000613998601c836141fb565b91507f4e6f205065726d697373696f6e20746f20676574205265636f726473000000006000830152602082019050919050565b60006139d86016836141fb565b91507f50617469656e74204e6f742052656769737465726564000000000000000000006000830152602082019050919050565b6000613a186025836141fb565b91507f596f7520646f6e277420686176652061207065726d697373696f6e20746f206160008301527f63636573730000000000000000000000000000000000000000000000000000006020830152604082019050919050565b6000613a7e6017836141fb565b91507f43616e2774204175746f72697a6520796f757273656c660000000000000000006000830152602082019050919050565b6000613abe6012836141fb565b91507f416c726561647920417574686f72697a656400000000000000000000000000006000830152602082019050919050565b6000613afe6019836141fb565b91507f43616e27742052656d6f76652053616d652041646472657373000000000000006000830152602082019050919050565b6000613b3e6024836141fb565b91507f50617469656e7420646f65736e2774206578697374206f6e20746865206e657460008301527f776f726b000000000000000000000000000000000000000000000000000000006020830152604082019050919050565b6000613ba46013836141fb565b91507f55736572204e6f742052656769737465726564000000000000000000000000006000830152602082019050919050565b6000613be4602d836141fb565b91507f596f7520446f6e277420686176652061207065726d697373696f6e20746f206460008301527f6f207468697320616374696f6e000000000000000000000000000000000000006020830152604082019050919050565b6000613c4a601e836141fb565b91507f416c72656164792050617469656e74204163636f756e742045786973742100006000830152602082019050919050565b6000613c8a601b836141fb565b91507f546869732050617469656e7420686173206e6f207265636f72647300000000006000830152602082019050919050565b6000613cca6016836141fb565b91507f616c7265616479204e6f7420417574686f72697a6564000000000000000000006000830152602082019050919050565b6000613d0a6016836141fb565b91507f416c7265616479204e6f7420417574686f72697a6564000000000000000000006000830152602082019050919050565b6000613d4a6034836141fb565b91507f596f752068617665206e6f207065726d697373696f6e20746f2061636365737360008301527f207468652070617469656e742064657461696c730000000000000000000000006020830152604082019050919050565b613dac8161424a565b82525050565b6000602082019050613dc76000830184613846565b92915050565b600060a0820190508181036000830152613de78188613855565b90508181036020830152613dfb8187613855565b90508181036040830152613e0f8186613855565b90508181036060830152613e238185613855565b90508181036080830152613e378184613855565b90509695505050505050565b6000602082019050613e5860008301846138ca565b92915050565b600060c0820190508181036000830152613e788189613912565b90508181036020830152613e8c8188613912565b90508181036040830152613ea08187613912565b90508181036060830152613eb48186613912565b90508181036080830152613ec88185613912565b905081810360a0830152613edc8184613912565b9050979650505050505050565b60006020820190508181036000830152613f028161394b565b9050919050565b60006020820190508181036000830152613f228161398b565b9050919050565b60006020820190508181036000830152613f42816139cb565b9050919050565b60006020820190508181036000830152613f6281613a0b565b9050919050565b60006020820190508181036000830152613f8281613a71565b9050919050565b60006020820190508181036000830152613fa281613ab1565b9050919050565b60006020820190508181036000830152613fc281613af1565b9050919050565b60006020820190508181036000830152613fe281613b31565b9050919050565b6000602082019050818103600083015261400281613b97565b9050919050565b6000602082019050818103600083015261402281613bd7565b9050919050565b6000602082019050818103600083015261404281613c3d565b9050919050565b6000602082019050818103600083015261406281613c7d565b9050919050565b6000602082019050818103600083015261408281613cbd565b9050919050565b600060208201905081810360008301526140a281613cfd565b9050919050565b600060208201905081810360008301526140c281613d3d565b9050919050565b60006020820190506140de6000830184613da3565b92915050565b600060a0820190506140f96000830188613da3565b818103602083015261410b8187613912565b9050818103604083015261411f8186613912565b905061412e6060830185613846565b61413b60808301846138ca565b9695505050505050565b6000604051905081810181811067ffffffffffffffff8211171561416c5761416b614296565b5b8060405250919050565b600067ffffffffffffffff82111561419157614190614296565b5b601f19601f8301169050602081019050919050565b6000819050602082019050919050565b600081519050919050565b600081519050919050565b6000602082019050919050565b600082825260208201905092915050565b600082825260208201905092915050565b600082825260208201905092915050565b60006142178261422a565b9050919050565b60008115159050919050565b600073ffffffffffffffffffffffffffffffffffffffff82169050919050565b6000819050919050565b82818337600083830152505050565b60005b83811015614281578082015181840152602081019050614266565b83811115614290576000848401525b50505050565bfe5b6000601f19601f8301169050919050565b6142b28161420c565b81146142bd57600080fd5b50565b6142c98161424a565b81146142d457600080fd5b5056fea26469706673582212200538c24f7a74ed146fcbde58b6b920db6303a5a1a60fa2a7e799566b5292926f64736f6c63430007060033",
  "immutableReferences": {},
  "source": "// SPDX-License-Identifier: MIT\r\npragma solidity >=0.4.22 <0.9.0;\r\n\r\npragma experimental ABIEncoderV2;\r\n\r\nimport './Hospital.sol';\r\n\r\ncontract Patient is Hospital {\r\n  uint256 private patientCount;\r\n\r\n\r\n  struct Records {\r\n    string hospitalName;\r\n    string reason;\r\n    string admittedOn;\r\n    string dischargedOn;\r\n    string ipfs;\r\n  }\r\n\r\n  struct patientDetails {\r\n    uint256 id;\r\n    string name;\r\n    string phone;\r\n    string gender;\r\n    string dob;\r\n    string bloodGroup;\r\n    string allergies;\r\n    Records[] records;\r\n    address patientAddress;\r\n  }\r\n\r\n  address[] public patientList;\r\n  mapping(address => mapping(address => bool)) isAuth;\r\n  mapping(address => patientDetails) patients;\r\n  mapping(address => bool) isPatient;\r\n\r\n\r\n  function addRecord(\r\n    address _patientAddress,\r\n    string memory _hospitalName, \r\n    string memory _reason, \r\n    string memory _admittedOn, \r\n    string memory _dischargedOn,\r\n    string memory _ipfs) public {\r\n      require(isPatient[_patientAddress], \"User Not Registered\");\r\n      require(isAuth[_patientAddress][msg.sender], \"No Permission to add records\");\r\n\r\n      patients[_patientAddress].records.push(Records(_hospitalName, _reason, _admittedOn, _dischargedOn, _ipfs));\r\n    }\r\n\r\n  function addPatient(\r\n    string memory _name,\r\n    string memory _phone,\r\n    string memory _gender,\r\n    string memory _dob,\r\n    string memory _bloodGroup,\r\n    string memory _allergies\r\n    ) public {\r\n      require(!isPatient[msg.sender], \"Already Patient Account Exist!\");\r\n      patientList.push(msg.sender);\r\n      patientCount++;\r\n      isPatient[msg.sender] = true;\r\n      isAuth[msg.sender][msg.sender] = true;\r\n      patients[msg.sender].id = patientCount;\r\n      patients[msg.sender].name = _name;\r\n      patients[msg.sender].phone = _phone;\r\n      patients[msg.sender].gender = _gender;\r\n      patients[msg.sender].dob = _dob;\r\n      patients[msg.sender].bloodGroup = _bloodGroup;\r\n      patients[msg.sender].allergies = _allergies;\r\n      patients[msg.sender].patientAddress = msg.sender;\r\n    }\r\n\r\n  function getPatientDetails(address _patientAddress) public view returns(\r\n    string memory _name,\r\n    string memory _phone,\r\n    string memory _gender,\r\n    string memory _dob,\r\n    string memory _bloodGroup,\r\n    string memory _allergies\r\n  ) {\r\n    require(isAuth[_patientAddress][msg.sender], \"You have no permission to access the patient details\");\r\n    require(isPatient[_patientAddress], \"Patient doesn't exist on the network\");\r\n    patientDetails memory patient = patients[_patientAddress];\r\n    return (patient.name, patient.phone, patient.gender, patient.dob, patient.bloodGroup, patient.allergies);\r\n  }\r\n\r\n  function getPatientRecords(address _patientAddress) public view returns(\r\n    string[] memory _hospitalName,\r\n    string[] memory _reason,\r\n    string[] memory _admittedOn,\r\n    string[] memory _dischargedOn,\r\n    string[] memory _ipfs\r\n  ) {\r\n    require(isAuth[_patientAddress][msg.sender], \"No Permission to get Records\");\r\n    require(isPatient[_patientAddress]);\r\n    require(patients[_patientAddress].records.length > 0, \"This Patient has no records\");\r\n\r\n    string[] memory HospitalName = new string[](patients[_patientAddress].records.length);\r\n    string[] memory Reason = new string[](patients[_patientAddress].records.length);\r\n    string[] memory AdmOn = new string[](patients[_patientAddress].records.length);\r\n    string[] memory DisOn = new string[](patients[_patientAddress].records.length);\r\n    string[] memory IPFS = new string[](patients[_patientAddress].records.length);\r\n\r\n    for(uint256 i = 0; i < patients[_patientAddress].records.length; i++) {\r\n      HospitalName[i] = patients[_patientAddress].records[i].hospitalName;\r\n      Reason[i] = patients[_patientAddress].records[i].reason;\r\n      AdmOn[i] = patients[_patientAddress].records[i].admittedOn;\r\n      DisOn[i] = patients[_patientAddress].records[i].dischargedOn;\r\n      IPFS[i] = patients[_patientAddress].records[i].ipfs;\r\n    }\r\n\r\n    return (HospitalName, Reason, AdmOn, DisOn, IPFS);\r\n  }\r\n\r\n\r\n  function addAuth(address _addr) public {\r\n    require(!isAuth[msg.sender][_addr], \"Already Authorized\");\r\n    require(msg.sender != _addr);\r\n    isAuth[msg.sender][_addr] = true;\r\n  }\r\n\r\n  function revokeAuth(address _addr) public {\r\n    require(isAuth[msg.sender][_addr], \"Already Not Authorized\");\r\n    require(msg.sender != _addr);\r\n    isAuth[msg.sender][_addr] = false;\r\n  }\r\n\r\n  function addAuthFromTo(address _from, address _to) public {\r\n    require(!isAuth[_from][_to], \"Already Authorized\");\r\n    require(_from != _to, \"Can't Autorize yourself\");\r\n    require(isAuth[_from][msg.sender], \"You don't have a permission to access\");\r\n    require(isPatient[_from], \"Patient Not Registered\");\r\n    isAuth[_from][_to] = true;\r\n  }\r\n\r\n  function removeAuthFromTo(address _from, address _to) public {\r\n    require(!isAuth[_from][_to], \"already Not Authorized\");\r\n    require(_from != _to, \"Can't Remove Same Address\");\r\n    require(isAuth[_from][msg.sender], \"You Don't have a permission to do this action\");\r\n    require(isPatient[_from]);\r\n    isAuth[_from][_to] = true; \r\n  }\r\n\r\n  function getPatientCount() public view returns(uint256) {\r\n    return patientCount;\r\n  }\r\n}",
  "sourcePath": "D:\\Graduation Project\\Blockchain Projects\\Ethereum-Health-Record\\contracts\\Patient.sol",
  "compiler": {
    "name": "solc",
    "version": "0.7.6+commit.7338295f.Emscripten.clang"
  },
  "schemaVersion": "3.4.3",
  "updatedAt": "2021-09-13T12:34:32.427Z",
  "networkType": "ethereum",
  "devdoc": {
    "kind": "dev",
    "methods": {},
    "version": 1
  },
  "userdoc": {
    "kind": "user",
    "methods": {},
    "version": 1
  }
}